{
  "transactions": [
    {
      "hash": "0xd7c46442863f1589b010ea23f145e217ec2c1a3bc362dfcfefe95e4a9c98f013",
      "transactionType": "CALL",
      "contractName": null,
      "contractAddress": "0x3b39f2783760a2b0d318995fe20db587e55caddc",
      "function": "approve(address,uint256)",
      "arguments": [
        "0x9A8ca723F5dcCb7926D00B71deC55c2fEa1F50f7",
        "115792089237316195423570985008687907853269984665640564039457584007913129639935"
      ],
      "transaction": {
        "from": "0x9473ec0057acbba6b6e1d6af50d14c6343c0817a",
        "to": "0x3b39f2783760a2b0d318995fe20db587e55caddc",
        "gas": "0xfbda",
        "value": "0x0",
        "input": "0x095ea7b30000000000000000000000009a8ca723f5dccb7926d00b71dec55c2fea1f50f7ffffffffffffffffffffffffffffffffffffffffffffffffffffffffffffffff",
        "nonce": "0x39",
        "chainId": "0xaa36a7"
      },
      "additionalContracts": [],
      "isFixedGasLimit": false
    },
    {
      "hash": "0x8068b7e73ce0adbb331b33ea97eca81d7d22fdd32a5ba0cf178e97f2cde3b14c",
      "transactionType": "CALL",
      "contractName": null,
      "contractAddress": "0x4eea91fc9862c429d8dd8ca471fc93568171fe2a",
      "function": "approve(address,uint256)",
      "arguments": [
        "0x9A8ca723F5dcCb7926D00B71deC55c2fEa1F50f7",
        "115792089237316195423570985008687907853269984665640564039457584007913129639935"
      ],
      "transaction": {
        "from": "0x9473ec0057acbba6b6e1d6af50d14c6343c0817a",
        "to": "0x4eea91fc9862c429d8dd8ca471fc93568171fe2a",
        "gas": "0xfbda",
        "value": "0x0",
        "input": "0x095ea7b30000000000000000000000009a8ca723f5dccb7926d00b71dec55c2fea1f50f7ffffffffffffffffffffffffffffffffffffffffffffffffffffffffffffffff",
        "nonce": "0x3a",
        "chainId": "0xaa36a7"
      },
      "additionalContracts": [],
      "isFixedGasLimit": false
    },
    {
      "hash": "0xb35bb3e8fe9d7772593bfa77e1bb3a82b8a6bae6ea71e5d78dcac379fc0cac5f",
      "transactionType": "CALL",
      "contractName": null,
      "contractAddress": "0x9a8ca723f5dccb7926d00b71dec55c2fea1f50f7",
      "function": "swap((address,address,uint24,int24,address),(bool,int256,uint160),(bool,bool),bytes)",
      "arguments": [
        "(0x3b39F2783760a2B0D318995fE20dB587e55cADdc, 0x4Eea91fc9862c429D8dd8Ca471fc93568171fE2a, 4000, 10, 0x7174486cDD1E9cBecd977134A10d55f357A50Ac0)",
        "(true, 100000000000000000000, 4295128740)",
        "(false, false)",
        "0x"
      ],
      "transaction": {
        "from": "0x9473ec0057acbba6b6e1d6af50d14c6343c0817a",
        "to": "0x9a8ca723f5dccb7926d00b71dec55c2fea1f50f7",
        "gas": "0x4734a",
        "value": "0x0",
        "input": "0x2229d0b40000000000000000000000003b39f2783760a2b0d318995fe20db587e55caddc0000000000000000000000004eea91fc9862c429d8dd8ca471fc93568171fe2a0000000000000000000000000000000000000000000000000000000000000fa0000000000000000000000000000000000000000000000000000000000000000a0000000000000000000000007174486cdd1e9cbecd977134a10d55f357a50ac000000000000000000000000000000000000000000000000000000000000000010000000000000000000000000000000000000000000000056bc75e2d6310000000000000000000000000000000000000000000000000000000000001000276a40000000000000000000000000000000000000000000000000000000000000000000000000000000000000000000000000000000000000000000000000000000000000000000000000000000000000000000000000000000000000000000001600000000000000000000000000000000000000000000000000000000000000000",
        "nonce": "0x3b",
        "chainId": "0xaa36a7"
      },
      "additionalContracts": [],
      "isFixedGasLimit": false
    }
  ],
  "receipts": [
    {
      "status": "0x1",
      "cumulativeGasUsed": "0x615ee3",
      "logs": [
        {
          "address": "0x3b39f2783760a2b0d318995fe20db587e55caddc",
          "topics": [
            "0x8c5be1e5ebec7d5bd14f71427d1e84f3dd0314c0f7b2291e5b200ac8c7c3b925",
            "0x0000000000000000000000009473ec0057acbba6b6e1d6af50d14c6343c0817a",
            "0x0000000000000000000000009a8ca723f5dccb7926d00b71dec55c2fea1f50f7"
          ],
          "data": "0xffffffffffffffffffffffffffffffffffffffffffffffffffffffffffffffff",
          "blockHash": "0x684fe568d422449587ba29a3d2a76f21d4b0bad34295fce35b9dfb341cdd79c3",
          "blockNumber": "0x60385e",
          "transactionHash": "0xd7c46442863f1589b010ea23f145e217ec2c1a3bc362dfcfefe95e4a9c98f013",
          "transactionIndex": "0x33",
          "logIndex": "0x49",
          "removed": false
        }
      ],
      "logsBloom": "0x00000000400000000000000000000000000000000000000000000000000000000000000000000000000000000000000080000000000000000000000000200000000000200000000000000000000000000000000000000000000000000100000000000000000000000000000000000000000000000000000000000000400004000010000000000000000000000000000000000000000000000000000000000000020000000000000000000008000000000000000000000000000000000000000000000000000000000000000000000000000000000000000000000000000000000010000000000000000000000000000000000000000000000000000004000000",
      "type": "0x2",
      "transactionHash": "0xd7c46442863f1589b010ea23f145e217ec2c1a3bc362dfcfefe95e4a9c98f013",
      "transactionIndex": "0x33",
      "blockHash": "0x684fe568d422449587ba29a3d2a76f21d4b0bad34295fce35b9dfb341cdd79c3",
      "blockNumber": "0x60385e",
      "gasUsed": "0xb657",
      "effectiveGasPrice": "0x94fb46b",
      "from": "0x9473ec0057acbba6b6e1d6af50d14c6343c0817a",
      "to": "0x3b39f2783760a2b0d318995fe20db587e55caddc",
      "contractAddress": null
    },
    {
      "status": "0x1",
      "cumulativeGasUsed": "0x62153a",
      "logs": [
        {
          "address": "0x4eea91fc9862c429d8dd8ca471fc93568171fe2a",
          "topics": [
            "0x8c5be1e5ebec7d5bd14f71427d1e84f3dd0314c0f7b2291e5b200ac8c7c3b925",
            "0x0000000000000000000000009473ec0057acbba6b6e1d6af50d14c6343c0817a",
            "0x0000000000000000000000009a8ca723f5dccb7926d00b71dec55c2fea1f50f7"
          ],
          "data": "0xffffffffffffffffffffffffffffffffffffffffffffffffffffffffffffffff",
          "blockHash": "0x684fe568d422449587ba29a3d2a76f21d4b0bad34295fce35b9dfb341cdd79c3",
          "blockNumber": "0x60385e",
          "transactionHash": "0x8068b7e73ce0adbb331b33ea97eca81d7d22fdd32a5ba0cf178e97f2cde3b14c",
          "transactionIndex": "0x34",
          "logIndex": "0x4a",
          "removed": false
        }
      ],
      "logsBloom": "0x00000000400000000000000000000000000000000000000000000000000000000000000000000000000000000000000000000800000000000000000000200000000000000000000000000000000000000000000000000000000000000100000000000000000000000000000000000000000000000000000000000000400004000010000000000000000000000000000000000000000000000000000000000000020000000000000000000008000000000000000000000000000000000000000000000000000000000000000000000000000010000000000040000000000000000010000000000000000000000000000000000000000000000000000000000000",
      "type": "0x2",
      "transactionHash": "0x8068b7e73ce0adbb331b33ea97eca81d7d22fdd32a5ba0cf178e97f2cde3b14c",
      "transactionIndex": "0x34",
      "blockHash": "0x684fe568d422449587ba29a3d2a76f21d4b0bad34295fce35b9dfb341cdd79c3",
      "blockNumber": "0x60385e",
      "gasUsed": "0xb657",
      "effectiveGasPrice": "0x94fb46b",
      "from": "0x9473ec0057acbba6b6e1d6af50d14c6343c0817a",
      "to": "0x4eea91fc9862c429d8dd8ca471fc93568171fe2a",
      "contractAddress": null
    },
    {
      "status": "0x1",
      "cumulativeGasUsed": "0x65203b",
      "logs": [
        {
          "address": "0xff34e285f8ed393e366046153e3c16484a4dd674",
          "topics": [
            "0x40e9cecb9f5f1f1c5b9c97dec2917b7ee92e57ba5563708daca94dd84ad7112f",
            "0x0d6dd4bc629b83e11c886998048128ea6df20079e593918bfdb0629f4977c3bd"
          ],
          "data": "0x0000000000000000000000009a8ca723f5dccb7926d00b71dec55c2fea1f50f7fffffffffffffffffffffffffffffffffffffffffffffffa8092d3e7c766b1190000000000000000000000000000000000000000000000056bc75e2d631000000000000000000000000000000000000000000000fd70a3d70a3d70a3d70a3d7000000000000000000000000000000000000000000000021e19e0c9bab2400000ffffffffffffffffffffffffffffffffffffffffffffffffffffffffffffff360000000000000000000000000000000000000000000000000000000000000fa0",
          "blockHash": "0x684fe568d422449587ba29a3d2a76f21d4b0bad34295fce35b9dfb341cdd79c3",
          "blockNumber": "0x60385e",
          "transactionHash": "0xb35bb3e8fe9d7772593bfa77e1bb3a82b8a6bae6ea71e5d78dcac379fc0cac5f",
          "transactionIndex": "0x35",
          "logIndex": "0x4b",
          "removed": false
        },
        {
          "address": "0x3b39f2783760a2b0d318995fe20db587e55caddc",
          "topics": [
            "0xddf252ad1be2c89b69c2b068fc378daa952ba7f163c4a11628f55a4df523b3ef",
            "0x0000000000000000000000009473ec0057acbba6b6e1d6af50d14c6343c0817a",
            "0x000000000000000000000000ff34e285f8ed393e366046153e3c16484a4dd674"
          ],
          "data": "0x0000000000000000000000000000000000000000000000057f6d2c1838994ee7",
          "blockHash": "0x684fe568d422449587ba29a3d2a76f21d4b0bad34295fce35b9dfb341cdd79c3",
          "blockNumber": "0x60385e",
          "transactionHash": "0xb35bb3e8fe9d7772593bfa77e1bb3a82b8a6bae6ea71e5d78dcac379fc0cac5f",
          "transactionIndex": "0x35",
          "logIndex": "0x4c",
          "removed": false
        },
        {
          "address": "0x4eea91fc9862c429d8dd8ca471fc93568171fe2a",
          "topics": [
            "0xddf252ad1be2c89b69c2b068fc378daa952ba7f163c4a11628f55a4df523b3ef",
            "0x000000000000000000000000ff34e285f8ed393e366046153e3c16484a4dd674",
            "0x0000000000000000000000009473ec0057acbba6b6e1d6af50d14c6343c0817a"
          ],
          "data": "0x0000000000000000000000000000000000000000000000056bc75e2d63100000",
          "blockHash": "0x684fe568d422449587ba29a3d2a76f21d4b0bad34295fce35b9dfb341cdd79c3",
          "blockNumber": "0x60385e",
          "transactionHash": "0xb35bb3e8fe9d7772593bfa77e1bb3a82b8a6bae6ea71e5d78dcac379fc0cac5f",
          "transactionIndex": "0x35",
          "logIndex": "0x4d",
          "removed": false
        }
      ],
      "logsBloom": "0x00000000000000000000000000000000000000000080000000000000002000000000000000000000000000000000000080000800040000000000000000000000000000200200800000000008000000000000000000000020000000000100000000000000800000020000000000000000000000000000000000000010400004000000200000000000000000000040000000000000000000000000000000000000000000000000000000000000000000000000000000000000000000800000000000000002000000000000000000000000000010000000000040000000000000000000000000000000004000000000000000000000000000000000000004000000",
      "type": "0x2",
      "transactionHash": "0xb35bb3e8fe9d7772593bfa77e1bb3a82b8a6bae6ea71e5d78dcac379fc0cac5f",
      "transactionIndex": "0x35",
      "blockHash": "0x684fe568d422449587ba29a3d2a76f21d4b0bad34295fce35b9dfb341cdd79c3",
      "blockNumber": "0x60385e",
      "gasUsed": "0x30b01",
      "effectiveGasPrice": "0x94fb46b",
      "from": "0x9473ec0057acbba6b6e1d6af50d14c6343c0817a",
      "to": "0x9a8ca723f5dccb7926d00b71dec55c2fea1f50f7",
      "contractAddress": null
    }
  ],
  "libraries": [],
  "pending": [],
  "returns": {},
  "timestamp": 1720917821,
  "chain": 11155111,
  "commit": "e9bf398"
}