{
  "transactions": [
    {
      "hash": "0x2de225f41a93a897710c6ae5cc10517de5669b50ed25cf8ada0ade6699f2df69",
      "transactionType": "CALL",
      "contractName": null,
      "contractAddress": "0xff34e285f8ed393e366046153e3c16484a4dd674",
      "function": "initialize((address,address,uint24,int24,address),uint160,bytes)",
      "arguments": [
        "(0x7169D38820dfd117C3FA1f22a697dBA58d90BA06, 0xDa317C1d3E835dD5F1BE459006471aCAA1289068, 4000, 10, 0x7174486cDD1E9cBecd977134A10d55f357A50Ac0)",
        "79228162514264337593543950336",
        "0x0000000000000000000000000000000000000000000000000000000066930ec4"
      ],
      "transaction": {
        "from": "0x9473ec0057acbba6b6e1d6af50d14c6343c0817a",
        "to": "0xff34e285f8ed393e366046153e3c16484a4dd674",
        "gas": "0x1296d",
        "value": "0x0",
        "input": "0x695c5bf50000000000000000000000007169d38820dfd117c3fa1f22a697dba58d90ba06000000000000000000000000da317c1d3e835dd5f1be459006471acaa12890680000000000000000000000000000000000000000000000000000000000000fa0000000000000000000000000000000000000000000000000000000000000000a0000000000000000000000007174486cdd1e9cbecd977134a10d55f357a50ac0000000000000000000000000000000000000000100000000000000000000000000000000000000000000000000000000000000000000000000000000000000e000000000000000000000000000000000000000000000000000000000000000200000000000000000000000000000000000000000000000000000000066930ec4",
        "nonce": "0x2c",
        "chainId": "0xaa36a7"
      },
      "additionalContracts": [],
      "isFixedGasLimit": false
    }
  ],
  "receipts": [
    {
      "status": "0x1",
      "cumulativeGasUsed": "0x97755d",
      "logs": [
        {
          "address": "0xff34e285f8ed393e366046153e3c16484a4dd674",
          "topics": [
            "0x3fd553db44f207b1f41348cfc4d251860814af9eadc470e8e7895e4d120511f4",
            "0x0000000000000000000000007169d38820dfd117c3fa1f22a697dba58d90ba06",
            "0x000000000000000000000000da317c1d3e835dd5f1be459006471acaa1289068"
          ],
          "data": "0x8892d8f8e48836217bb039202ebdbb222f078903843ffec23f67cee2c7723b1b0000000000000000000000000000000000000000000000000000000000000fa0000000000000000000000000000000000000000000000000000000000000000a0000000000000000000000007174486cdd1e9cbecd977134a10d55f357a50ac0",
          "blockHash": "0x366f514e542d75f646d0aee66575c96de9bd2c402c2d5fcbb1b348bae350376e",
          "blockNumber": "0x603732",
          "transactionHash": "0x2de225f41a93a897710c6ae5cc10517de5669b50ed25cf8ada0ade6699f2df69",
          "transactionIndex": "0x45",
          "logIndex": "0x7a",
          "removed": false
        }
      ],
      "logsBloom": "0x00200000000000000000000000000000000000000000000000000000002000000000000000000000000000000000000000000000000000000000000000000400010000000000000000000000000020000000000000000000000000000000000000000000800000000000000100000000000000000000000000000000000000000000000000000000000000000000000000000004000000000000000080000000000000000000000000000000000000000000000000000000000000800000000000000000000000000000000000000000000000000000000000000000000000040000000000000000000000000000000000000000000002000000000000000000",
      "type": "0x2",
      "transactionHash": "0x2de225f41a93a897710c6ae5cc10517de5669b50ed25cf8ada0ade6699f2df69",
      "transactionIndex": "0x45",
      "blockHash": "0x366f514e542d75f646d0aee66575c96de9bd2c402c2d5fcbb1b348bae350376e",
      "blockNumber": "0x603732",
      "gasUsed": "0xd755",
      "effectiveGasPrice": "0x19d13e73",
      "from": "0x9473ec0057acbba6b6e1d6af50d14c6343c0817a",
      "to": "0xff34e285f8ed393e366046153e3c16484a4dd674",
      "contractAddress": null
    }
  ],
  "libraries": [],
  "pending": [],
  "returns": {},
  "timestamp": 1720913646,
  "chain": 11155111,
  "commit": "e9bf398"
}