{
  "transactions": [
    {
      "hash": "0x3d21c95ab86b50436f92ed4c968bad9c56f2d5c1e30f24f7861b9ed539d12f77",
      "transactionType": "CALL",
      "contractName": null,
      "contractAddress": "0xff34e285f8ed393e366046153e3c16484a4dd674",
      "function": "initialize((address,address,uint24,int24,address),uint160,bytes)",
      "arguments": [
        "(0x3b39F2783760a2B0D318995fE20dB587e55cADdc, 0x4Eea91fc9862c429D8dd8Ca471fc93568171fE2a, 4000, 10, 0x7174486cDD1E9cBecd977134A10d55f357A50Ac0)",
        "79228162514264337593543950336",
        "0x0000000000000000000000000000000000000000000000000000000066931dc4"
      ],
      "transaction": {
        "from": "0x9473ec0057acbba6b6e1d6af50d14c6343c0817a",
        "to": "0xff34e285f8ed393e366046153e3c16484a4dd674",
        "gas": "0x1296d",
        "value": "0x0",
        "input": "0x695c5bf50000000000000000000000003b39f2783760a2b0d318995fe20db587e55caddc0000000000000000000000004eea91fc9862c429d8dd8ca471fc93568171fe2a0000000000000000000000000000000000000000000000000000000000000fa0000000000000000000000000000000000000000000000000000000000000000a0000000000000000000000007174486cdd1e9cbecd977134a10d55f357a50ac0000000000000000000000000000000000000000100000000000000000000000000000000000000000000000000000000000000000000000000000000000000e000000000000000000000000000000000000000000000000000000000000000200000000000000000000000000000000000000000000000000000000066931dc4",
        "nonce": "0x35",
        "chainId": "0xaa36a7"
      },
      "additionalContracts": [],
      "isFixedGasLimit": false
    }
  ],
  "receipts": [
    {
      "status": "0x1",
      "cumulativeGasUsed": "0x9b53d3",
      "logs": [
        {
          "address": "0xff34e285f8ed393e366046153e3c16484a4dd674",
          "topics": [
            "0x3fd553db44f207b1f41348cfc4d251860814af9eadc470e8e7895e4d120511f4",
            "0x0000000000000000000000003b39f2783760a2b0d318995fe20db587e55caddc",
            "0x0000000000000000000000004eea91fc9862c429d8dd8ca471fc93568171fe2a"
          ],
          "data": "0x0d6dd4bc629b83e11c886998048128ea6df20079e593918bfdb0629f4977c3bd0000000000000000000000000000000000000000000000000000000000000fa0000000000000000000000000000000000000000000000000000000000000000a0000000000000000000000007174486cdd1e9cbecd977134a10d55f357a50ac0",
          "blockHash": "0xfd61cda196b46bcf88f2e16c856d9759130382895be67ba1c719de83eec99cc6",
          "blockNumber": "0x603846",
          "transactionHash": "0x3d21c95ab86b50436f92ed4c968bad9c56f2d5c1e30f24f7861b9ed539d12f77",
          "transactionIndex": "0x2a",
          "logIndex": "0x56",
          "removed": false
        }
      ],
      "logsBloom": "0x00000000000000000000000000000000100000000000000000000000002000000000004000000000000000000000000000000000000000000100000000000000000000400000000000010000000020000000010000000000000000000000000000000000800000000000000000000000000000000000000000000000000000000000000000000000000000000000000000000000000000000000000000000000000000000000000000000000000000000000000000000000000000800000000000000000000000000000000000000000000000000000000000000000000000040000000000000000000000000000000000000000000002000000000000000000",
      "type": "0x2",
      "transactionHash": "0x3d21c95ab86b50436f92ed4c968bad9c56f2d5c1e30f24f7861b9ed539d12f77",
      "transactionIndex": "0x2a",
      "blockHash": "0xfd61cda196b46bcf88f2e16c856d9759130382895be67ba1c719de83eec99cc6",
      "blockNumber": "0x603846",
      "gasUsed": "0xd755",
      "effectiveGasPrice": "0x156ec537",
      "from": "0x9473ec0057acbba6b6e1d6af50d14c6343c0817a",
      "to": "0xff34e285f8ed393e366046153e3c16484a4dd674",
      "contractAddress": null
    }
  ],
  "libraries": [],
  "pending": [],
  "returns": {},
  "timestamp": 1720917469,
  "chain": 11155111,
  "commit": "e9bf398"
}