{
  "transactions": [
    {
      "hash": "0x4d48e8d825c811a8c35bcbb4ab67fa8d5a7d23216e6e2822599ed27db3a8ea13",
      "transactionType": "CALL",
      "contractName": null,
      "contractAddress": "0xff34e285f8ed393e366046153e3c16484a4dd674",
      "function": "initialize((address,address,uint24,int24,address),uint160,bytes)",
      "arguments": [
        "(0x1c7D4B196Cb0C7B01d743Fbc6116a902379C7238, 0x7169D38820dfd117C3FA1f22a697dBA58d90BA06, 4000, 10, 0x7174486cDD1E9cBecd977134A10d55f357A50Ac0)",
        "79228162514264337593543950336",
        "0x000000000000000000000000000000000000000000000000000000006693093c"
      ],
      "transaction": {
        "from": "0x9473ec0057acbba6b6e1d6af50d14c6343c0817a",
        "to": "0xff34e285f8ed393e366046153e3c16484a4dd674",
        "gas": "0x1296d",
        "value": "0x0",
        "input": "0x695c5bf50000000000000000000000001c7d4b196cb0c7b01d743fbc6116a902379c72380000000000000000000000007169d38820dfd117c3fa1f22a697dba58d90ba060000000000000000000000000000000000000000000000000000000000000fa0000000000000000000000000000000000000000000000000000000000000000a0000000000000000000000007174486cdd1e9cbecd977134a10d55f357a50ac0000000000000000000000000000000000000000100000000000000000000000000000000000000000000000000000000000000000000000000000000000000e00000000000000000000000000000000000000000000000000000000000000020000000000000000000000000000000000000000000000000000000006693093c",
        "nonce": "0x2a",
        "chainId": "0xaa36a7"
      },
      "additionalContracts": [],
      "isFixedGasLimit": false
    }
  ],
  "receipts": [
    {
      "status": "0x1",
      "cumulativeGasUsed": "0x7ea9e0",
      "logs": [
        {
          "address": "0xff34e285f8ed393e366046153e3c16484a4dd674",
          "topics": [
            "0x3fd553db44f207b1f41348cfc4d251860814af9eadc470e8e7895e4d120511f4",
            "0x0000000000000000000000001c7d4b196cb0c7b01d743fbc6116a902379c7238",
            "0x0000000000000000000000007169d38820dfd117c3fa1f22a697dba58d90ba06"
          ],
          "data": "0x5152ba6e4189781a2d4094350468aa707121c959014652b4dc571f203eafb6490000000000000000000000000000000000000000000000000000000000000fa0000000000000000000000000000000000000000000000000000000000000000a0000000000000000000000007174486cdd1e9cbecd977134a10d55f357a50ac0",
          "blockHash": "0x7f362cf7a7b9d48e75c6df7cea3662b1b893377bc12d5e545b3eaa0d8e3c8c29",
          "blockNumber": "0x6036d0",
          "transactionHash": "0x4d48e8d825c811a8c35bcbb4ab67fa8d5a7d23216e6e2822599ed27db3a8ea13",
          "transactionIndex": "0x42",
          "logIndex": "0x69",
          "removed": false
        }
      ],
      "logsBloom": "0x00200000000000000000000000000000000000000000000000000000002000000000000000000000000000000000000000000000000004000000000000000000110000000000000000000000000020000000000000000000000000000000000000000000800000000000000000000000000000000000000000000000000000000000000000000000000000000000000000000000000000000000000080000000000000000000000000000000000000000000008000000000000000800000000000000000000000000000000000000000000000000000000000000000000000040000000000000000000000000000000000000000000002000000000000000000",
      "type": "0x2",
      "transactionHash": "0x4d48e8d825c811a8c35bcbb4ab67fa8d5a7d23216e6e2822599ed27db3a8ea13",
      "transactionIndex": "0x42",
      "blockHash": "0x7f362cf7a7b9d48e75c6df7cea3662b1b893377bc12d5e545b3eaa0d8e3c8c29",
      "blockNumber": "0x6036d0",
      "gasUsed": "0xd755",
      "effectiveGasPrice": "0x15530aeaf",
      "from": "0x9473ec0057acbba6b6e1d6af50d14c6343c0817a",
      "to": "0xff34e285f8ed393e366046153e3c16484a4dd674",
      "contractAddress": null
    }
  ],
  "libraries": [],
  "pending": [],
  "returns": {},
  "timestamp": 1720912225,
  "chain": 11155111,
  "commit": "e9bf398"
}