{
  "transactions": [
    {
      "hash": "0x07d933285662f6d565af638cf397689d94558a3305c8622234696139e058e400",
      "transactionType": "CALL",
      "contractName": null,
      "contractAddress": "0xff34e285f8ed393e366046153e3c16484a4dd674",
      "function": "initialize((address,address,uint24,int24,address),uint160,bytes)",
      "arguments": [
        "(0x0e5A8c1D9EEbbe6a17b71A02aE031316E1BB0B1C, 0x20878531392bC350D542CE58d48dd8dc1C682eb1, 4000, 10, 0x7174486cDD1E9cBecd977134A10d55f357A50Ac0)",
        "79228162514264337593543950336",
        "0x0000000000000000000000000000000000000000000000000000000066931a7c"
      ],
      "transaction": {
        "from": "0x9473ec0057acbba6b6e1d6af50d14c6343c0817a",
        "to": "0xff34e285f8ed393e366046153e3c16484a4dd674",
        "gas": "0x1296d",
        "value": "0x0",
        "input": "0x695c5bf50000000000000000000000000e5a8c1d9eebbe6a17b71a02ae031316e1bb0b1c00000000000000000000000020878531392bc350d542ce58d48dd8dc1c682eb10000000000000000000000000000000000000000000000000000000000000fa0000000000000000000000000000000000000000000000000000000000000000a0000000000000000000000007174486cdd1e9cbecd977134a10d55f357a50ac0000000000000000000000000000000000000000100000000000000000000000000000000000000000000000000000000000000000000000000000000000000e000000000000000000000000000000000000000000000000000000000000000200000000000000000000000000000000000000000000000000000000066931a7c",
        "nonce": "0x32",
        "chainId": "0xaa36a7"
      },
      "additionalContracts": [],
      "isFixedGasLimit": false
    }
  ],
  "receipts": [
    {
      "status": "0x1",
      "cumulativeGasUsed": "0xa23b53",
      "logs": [
        {
          "address": "0xff34e285f8ed393e366046153e3c16484a4dd674",
          "topics": [
            "0x3fd553db44f207b1f41348cfc4d251860814af9eadc470e8e7895e4d120511f4",
            "0x0000000000000000000000000e5a8c1d9eebbe6a17b71a02ae031316e1bb0b1c",
            "0x00000000000000000000000020878531392bc350d542ce58d48dd8dc1c682eb1"
          ],
          "data": "0x16fec5e7ca1c0ed353eb1d9abe5d81040c5a897520efe9330ee331a9c0a6ff980000000000000000000000000000000000000000000000000000000000000fa0000000000000000000000000000000000000000000000000000000000000000a0000000000000000000000007174486cdd1e9cbecd977134a10d55f357a50ac0",
          "blockHash": "0x8ac4637dc3fd7e93dde8146af3a42ecfae6a286e421a85826ed580d4b982c044",
          "blockNumber": "0x60380e",
          "transactionHash": "0x07d933285662f6d565af638cf397689d94558a3305c8622234696139e058e400",
          "transactionIndex": "0x35",
          "logIndex": "0x5d",
          "removed": false
        }
      ],
      "logsBloom": "0x00000400000000000000000000000000000000000000000000000000002000000000000000000000000000000000000000000000000000000000000000000000000200000000008000000000000020000000000000000000000000000000000000000000800000000000000000000000000000000000000000000000000000000100000000000000000000000000000000000000000000000000000000000000000000000000200000000000000000002000000000000000000000800000000000000000000000000000000000000000000000000000000000000000000000040000000000000000000000000000000000000000000002000000000000000000",
      "type": "0x2",
      "transactionHash": "0x07d933285662f6d565af638cf397689d94558a3305c8622234696139e058e400",
      "transactionIndex": "0x35",
      "blockHash": "0x8ac4637dc3fd7e93dde8146af3a42ecfae6a286e421a85826ed580d4b982c044",
      "blockNumber": "0x60380e",
      "gasUsed": "0xd755",
      "effectiveGasPrice": "0x49e8a8c",
      "from": "0x9473ec0057acbba6b6e1d6af50d14c6343c0817a",
      "to": "0xff34e285f8ed393e366046153e3c16484a4dd674",
      "contractAddress": null
    }
  ],
  "libraries": [],
  "pending": [],
  "returns": {},
  "timestamp": 1720916645,
  "chain": 11155111,
  "commit": "e9bf398"
}