{
  "transactions": [
    {
      "hash": "0x368757387963d688703039556355283cc43d3f4d1eab34bab6eb6f2000dd61fa",
      "transactionType": "CALL",
      "contractName": null,
      "contractAddress": "0xff34e285f8ed393e366046153e3c16484a4dd674",
      "function": "initialize((address,address,uint24,int24,address),uint160,bytes)",
      "arguments": [
        "(0x663C1B5eAde9A851F7224f83ce593a51793Fb7F6, 0xDa317C1d3E835dD5F1BE459006471aCAA1289068, 4000, 10, 0x7174486cDD1E9cBecd977134A10d55f357A50Ac0)",
        "79228162514264337593543950336",
        "0x0000000000000000000000000000000000000000000000000000000066931224"
      ],
      "transaction": {
        "from": "0x9473ec0057acbba6b6e1d6af50d14c6343c0817a",
        "to": "0xff34e285f8ed393e366046153e3c16484a4dd674",
        "gas": "0x1296d",
        "value": "0x0",
        "input": "0x695c5bf5000000000000000000000000663c1b5eade9a851f7224f83ce593a51793fb7f6000000000000000000000000da317c1d3e835dd5f1be459006471acaa12890680000000000000000000000000000000000000000000000000000000000000fa0000000000000000000000000000000000000000000000000000000000000000a0000000000000000000000007174486cdd1e9cbecd977134a10d55f357a50ac0000000000000000000000000000000000000000100000000000000000000000000000000000000000000000000000000000000000000000000000000000000e000000000000000000000000000000000000000000000000000000000000000200000000000000000000000000000000000000000000000000000000066931224",
        "nonce": "0x2e",
        "chainId": "0xaa36a7"
      },
      "additionalContracts": [],
      "isFixedGasLimit": false
    }
  ],
  "receipts": [
    {
      "status": "0x1",
      "cumulativeGasUsed": "0xa41c78",
      "logs": [
        {
          "address": "0xff34e285f8ed393e366046153e3c16484a4dd674",
          "topics": [
            "0x3fd553db44f207b1f41348cfc4d251860814af9eadc470e8e7895e4d120511f4",
            "0x000000000000000000000000663c1b5eade9a851f7224f83ce593a51793fb7f6",
            "0x000000000000000000000000da317c1d3e835dd5f1be459006471acaa1289068"
          ],
          "data": "0x085041110a548c6cb34bf6d440958ed53545e0d51db894b0f17d8f488d11d9ef0000000000000000000000000000000000000000000000000000000000000fa0000000000000000000000000000000000000000000000000000000000000000a0000000000000000000000007174486cdd1e9cbecd977134a10d55f357a50ac0",
          "blockHash": "0x9d4ee0df349382cfd22a5937e56fa2a066c0362de40e36453247b1194320f882",
          "blockNumber": "0x603770",
          "transactionHash": "0x368757387963d688703039556355283cc43d3f4d1eab34bab6eb6f2000dd61fa",
          "transactionIndex": "0x53",
          "logIndex": "0x5f",
          "removed": false
        }
      ],
      "logsBloom": "0x00000000000000000000000000000000000000000000000000000000002000000000000000000000000000000000000000000000000000000000000000000400000000000000000000000000000020000000000000000000000000000000000000000000800000000000000100000000000000000000000000000000000000000000000000000000000000000000000000000004000000000000000000000000000000000000000000000000000000000000000000000000000000800000000000000000000000000000000000000000000000000000200000000000000000040000000000000000000000000000000008000000200002000000000000000000",
      "type": "0x2",
      "transactionHash": "0x368757387963d688703039556355283cc43d3f4d1eab34bab6eb6f2000dd61fa",
      "transactionIndex": "0x53",
      "blockHash": "0x9d4ee0df349382cfd22a5937e56fa2a066c0362de40e36453247b1194320f882",
      "blockNumber": "0x603770",
      "gasUsed": "0xd755",
      "effectiveGasPrice": "0xc40d801",
      "from": "0x9473ec0057acbba6b6e1d6af50d14c6343c0817a",
      "to": "0xff34e285f8ed393e366046153e3c16484a4dd674",
      "contractAddress": null
    }
  ],
  "libraries": [],
  "pending": [],
  "returns": {},
  "timestamp": 1720914493,
  "chain": 11155111,
  "commit": "e9bf398"
}