{
  "transactions": [
    {
      "hash": "0x302ac48d76a4c643c206a720d2eaf9f55b0efd093f46a2f9ec26692e768e0262",
      "transactionType": "CALL",
      "contractName": null,
      "contractAddress": "0x3b39f2783760a2b0d318995fe20db587e55caddc",
      "function": "approve(address,uint256)",
      "arguments": [
        "0xFB3e0C6F74eB1a21CC1Da29aeC80D2Dfe6C9a317",
        "1000000000000000000000"
      ],
      "transaction": {
        "from": "0x9473ec0057acbba6b6e1d6af50d14c6343c0817a",
        "to": "0x3b39f2783760a2b0d318995fe20db587e55caddc",
        "gas": "0x108f4",
        "value": "0x0",
        "input": "0x095ea7b3000000000000000000000000fb3e0c6f74eb1a21cc1da29aec80d2dfe6c9a31700000000000000000000000000000000000000000000003635c9adc5dea00000",
        "nonce": "0x36",
        "chainId": "0xaa36a7"
      },
      "additionalContracts": [],
      "isFixedGasLimit": false
    },
    {
      "hash": "0xc892514494835ee5eea1bc55c641da01a755f6fc22af6d4e0002893195c02b7c",
      "transactionType": "CALL",
      "contractName": null,
      "contractAddress": "0x4eea91fc9862c429d8dd8ca471fc93568171fe2a",
      "function": "approve(address,uint256)",
      "arguments": [
        "0xFB3e0C6F74eB1a21CC1Da29aeC80D2Dfe6C9a317",
        "1000000000000000000000"
      ],
      "transaction": {
        "from": "0x9473ec0057acbba6b6e1d6af50d14c6343c0817a",
        "to": "0x4eea91fc9862c429d8dd8ca471fc93568171fe2a",
        "gas": "0x108f4",
        "value": "0x0",
        "input": "0x095ea7b3000000000000000000000000fb3e0c6f74eb1a21cc1da29aec80d2dfe6c9a31700000000000000000000000000000000000000000000003635c9adc5dea00000",
        "nonce": "0x37",
        "chainId": "0xaa36a7"
      },
      "additionalContracts": [],
      "isFixedGasLimit": false
    },
    {
      "hash": "0xe9880aa179ebd8efea4b89580c2e50c08671cbf82fdcecc82635cd6032631ee5",
      "transactionType": "CALL",
      "contractName": null,
      "contractAddress": "0xfb3e0c6f74eb1a21cc1da29aec80d2dfe6c9a317",
      "function": "modifyLiquidity((address,address,uint24,int24,address),(int24,int24,int256,bytes32),bytes)",
      "arguments": [
        "(0x3b39F2783760a2B0D318995fE20dB587e55cADdc, 0x4Eea91fc9862c429D8dd8Ca471fc93568171fE2a, 4000, 10, 0x7174486cDD1E9cBecd977134A10d55f357A50Ac0)",
        "(-600, 600, 10000000000000000000000, 0x0000000000000000000000000000000000000000000000000000000000000000)",
        "0x"
      ],
      "transaction": {
        "from": "0x9473ec0057acbba6b6e1d6af50d14c6343c0817a",
        "to": "0xfb3e0c6f74eb1a21cc1da29aec80d2dfe6c9a317",
        "gas": "0x71186",
        "value": "0x0",
        "input": "0x5a6bcfda0000000000000000000000003b39f2783760a2b0d318995fe20db587e55caddc0000000000000000000000004eea91fc9862c429d8dd8ca471fc93568171fe2a0000000000000000000000000000000000000000000000000000000000000fa0000000000000000000000000000000000000000000000000000000000000000a0000000000000000000000007174486cdd1e9cbecd977134a10d55f357a50ac0fffffffffffffffffffffffffffffffffffffffffffffffffffffffffffffda8000000000000000000000000000000000000000000000000000000000000025800000000000000000000000000000000000000000000021e19e0c9bab2400000000000000000000000000000000000000000000000000000000000000000000000000000000000000000000000000000000000000000000000000000000001400000000000000000000000000000000000000000000000000000000000000000",
        "nonce": "0x38",
        "chainId": "0xaa36a7"
      },
      "additionalContracts": [],
      "isFixedGasLimit": false
    }
  ],
  "receipts": [
    {
      "status": "0x1",
      "cumulativeGasUsed": "0xad5812",
      "logs": [
        {
          "address": "0x3b39f2783760a2b0d318995fe20db587e55caddc",
          "topics": [
            "0x8c5be1e5ebec7d5bd14f71427d1e84f3dd0314c0f7b2291e5b200ac8c7c3b925",
            "0x0000000000000000000000009473ec0057acbba6b6e1d6af50d14c6343c0817a",
            "0x000000000000000000000000fb3e0c6f74eb1a21cc1da29aec80d2dfe6c9a317"
          ],
          "data": "0x00000000000000000000000000000000000000000000003635c9adc5dea00000",
          "blockHash": "0xfc0c77707120bdf0661cbaae69b86ffde413584452cfb48e5e79127a267f9461",
          "blockNumber": "0x603857",
          "transactionHash": "0x302ac48d76a4c643c206a720d2eaf9f55b0efd093f46a2f9ec26692e768e0262",
          "transactionIndex": "0x42",
          "logIndex": "0x7e",
          "removed": false
        }
      ],
      "logsBloom": "0x00000040000000000000000000000008000000000020000000000000000000000000000000000000000000000000000080000000000000000000000000200000000000200000000000000000000000000000000000000000000000000100000000000000000000000000000000000000000000000000000000000000400004000000000000000000000000000000000000000000000000000000000000000000020000000000000000000000000000000000000000000000000000000000000000000000000000000000000000000000000000000000000000000000000000000010000000000000000000000000000000000000000000000000000004000000",
      "type": "0x2",
      "transactionHash": "0x302ac48d76a4c643c206a720d2eaf9f55b0efd093f46a2f9ec26692e768e0262",
      "transactionIndex": "0x42",
      "blockHash": "0xfc0c77707120bdf0661cbaae69b86ffde413584452cfb48e5e79127a267f9461",
      "blockNumber": "0x603857",
      "gasUsed": "0xb52b",
      "effectiveGasPrice": "0x83e3b80",
      "from": "0x9473ec0057acbba6b6e1d6af50d14c6343c0817a",
      "to": "0x3b39f2783760a2b0d318995fe20db587e55caddc",
      "contractAddress": null
    },
    {
      "status": "0x1",
      "cumulativeGasUsed": "0x5d18c6",
      "logs": [
        {
          "address": "0x4eea91fc9862c429d8dd8ca471fc93568171fe2a",
          "topics": [
            "0x8c5be1e5ebec7d5bd14f71427d1e84f3dd0314c0f7b2291e5b200ac8c7c3b925",
            "0x0000000000000000000000009473ec0057acbba6b6e1d6af50d14c6343c0817a",
            "0x000000000000000000000000fb3e0c6f74eb1a21cc1da29aec80d2dfe6c9a317"
          ],
          "data": "0x00000000000000000000000000000000000000000000003635c9adc5dea00000",
          "blockHash": "0xeced8a121007d4fc4d8c8a53fd947109ffe0312edad6d0f808da4116353d11bf",
          "blockNumber": "0x603858",
          "transactionHash": "0xc892514494835ee5eea1bc55c641da01a755f6fc22af6d4e0002893195c02b7c",
          "transactionIndex": "0x2b",
          "logIndex": "0x61",
          "removed": false
        }
      ],
      "logsBloom": "0x00000040000000000000000000000008000000000020000000000000000000000000000000000000000000000000000000000800000000000000000000200000000000000000000000000000000000000000000000000000000000000100000000000000000000000000000000000000000000000000000000000000400004000000000000000000000000000000000000000000000000000000000000000000020000000000000000000000000000000000000000000000000000000000000000000000000000000000000000000000000010000000000040000000000000000010000000000000000000000000000000000000000000000000000000000000",
      "type": "0x2",
      "transactionHash": "0xc892514494835ee5eea1bc55c641da01a755f6fc22af6d4e0002893195c02b7c",
      "transactionIndex": "0x2b",
      "blockHash": "0xeced8a121007d4fc4d8c8a53fd947109ffe0312edad6d0f808da4116353d11bf",
      "blockNumber": "0x603858",
      "gasUsed": "0xb52b",
      "effectiveGasPrice": "0x83be7ad",
      "from": "0x9473ec0057acbba6b6e1d6af50d14c6343c0817a",
      "to": "0x4eea91fc9862c429d8dd8ca471fc93568171fe2a",
      "contractAddress": null
    },
    {
      "status": "0x1",
      "cumulativeGasUsed": "0x6236d6",
      "logs": [
        {
          "address": "0xff34e285f8ed393e366046153e3c16484a4dd674",
          "topics": [
            "0x541c041c2cce48e614b3de043c9280f06b6164c0a1741649e2de3c3d375f7974",
            "0x0d6dd4bc629b83e11c886998048128ea6df20079e593918bfdb0629f4977c3bd",
            "0x000000000000000000000000fb3e0c6f74eb1a21cc1da29aec80d2dfe6c9a317"
          ],
          "data": "0xfffffffffffffffffffffffffffffffffffffffffffffffffffffffffffffda8000000000000000000000000000000000000000000000000000000000000025800000000000000000000000000000000000000000000021e19e0c9bab2400000",
          "blockHash": "0xeced8a121007d4fc4d8c8a53fd947109ffe0312edad6d0f808da4116353d11bf",
          "blockNumber": "0x603858",
          "transactionHash": "0xe9880aa179ebd8efea4b89580c2e50c08671cbf82fdcecc82635cd6032631ee5",
          "transactionIndex": "0x2c",
          "logIndex": "0x62",
          "removed": false
        },
        {
          "address": "0x3b39f2783760a2b0d318995fe20db587e55caddc",
          "topics": [
            "0xddf252ad1be2c89b69c2b068fc378daa952ba7f163c4a11628f55a4df523b3ef",
            "0x0000000000000000000000009473ec0057acbba6b6e1d6af50d14c6343c0817a",
            "0x000000000000000000000000ff34e285f8ed393e366046153e3c16484a4dd674"
          ],
          "data": "0x000000000000000000000000000000000000000000000010054ddc28fe418aa9",
          "blockHash": "0xeced8a121007d4fc4d8c8a53fd947109ffe0312edad6d0f808da4116353d11bf",
          "blockNumber": "0x603858",
          "transactionHash": "0xe9880aa179ebd8efea4b89580c2e50c08671cbf82fdcecc82635cd6032631ee5",
          "transactionIndex": "0x2c",
          "logIndex": "0x63",
          "removed": false
        },
        {
          "address": "0x4eea91fc9862c429d8dd8ca471fc93568171fe2a",
          "topics": [
            "0xddf252ad1be2c89b69c2b068fc378daa952ba7f163c4a11628f55a4df523b3ef",
            "0x0000000000000000000000009473ec0057acbba6b6e1d6af50d14c6343c0817a",
            "0x000000000000000000000000ff34e285f8ed393e366046153e3c16484a4dd674"
          ],
          "data": "0x000000000000000000000000000000000000000000000010054ddc28fe418aa9",
          "blockHash": "0xeced8a121007d4fc4d8c8a53fd947109ffe0312edad6d0f808da4116353d11bf",
          "blockNumber": "0x603858",
          "transactionHash": "0xe9880aa179ebd8efea4b89580c2e50c08671cbf82fdcecc82635cd6032631ee5",
          "transactionIndex": "0x2c",
          "logIndex": "0x64",
          "removed": false
        }
      ],
      "logsBloom": "0x000000401000000000000000000000080000000000a0000000000000002000000000000000000000000000000000000080000800000000000000000000000000000000200200800000000008000000000000000000000000000000000100000010000000800000020000000000000000000000000000000000000010400004000000200000000000000000000040000000000000000000000000000000000000000000000000000000000000000000000000000000000000000000800000000000000002000000000000000000000000000010000000000040000000000000000000000000000000040000000000000000000000000000000000000004000000",
      "type": "0x2",
      "transactionHash": "0xe9880aa179ebd8efea4b89580c2e50c08671cbf82fdcecc82635cd6032631ee5",
      "transactionIndex": "0x2c",
      "blockHash": "0xeced8a121007d4fc4d8c8a53fd947109ffe0312edad6d0f808da4116353d11bf",
      "blockNumber": "0x603858",
      "gasUsed": "0x51e10",
      "effectiveGasPrice": "0x83be7ad",
      "from": "0x9473ec0057acbba6b6e1d6af50d14c6343c0817a",
      "to": "0xfb3e0c6f74eb1a21cc1da29aec80d2dfe6c9a317",
      "contractAddress": null
    }
  ],
  "libraries": [],
  "pending": [],
  "returns": {},
  "timestamp": 1720917746,
  "chain": 11155111,
  "commit": "e9bf398"
}